{
  "_format": "hh-sol-artifact-1",
  "contractName": "Campaign",
  "sourceName": "contracts/Campaign.sol",
  "abi": [
    {
      "inputs": [
        {
          "internalType": "uint256",
          "name": "_companyId",
          "type": "uint256"
        }
      ],
      "stateMutability": "nonpayable",
      "type": "constructor"
    },
    {
      "anonymous": false,
      "inputs": [
        {
          "indexed": true,
          "internalType": "address",
          "name": "donor",
          "type": "address"
        },
        {
          "indexed": false,
          "internalType": "uint256",
          "name": "amount",
          "type": "uint256"
        }
      ],
      "name": "DonationReceived",
      "type": "event"
    },
    {
      "anonymous": false,
      "inputs": [
        {
          "indexed": true,
          "internalType": "address",
          "name": "to",
          "type": "address"
        },
        {
          "indexed": false,
          "internalType": "uint256",
          "name": "amount",
          "type": "uint256"
        }
      ],
      "name": "Withdraw",
      "type": "event"
    },
    {
      "inputs": [],
      "name": "companyId",
      "outputs": [
        {
          "internalType": "uint256",
          "name": "",
          "type": "uint256"
        }
      ],
      "stateMutability": "view",
      "type": "function"
    },
    {
      "inputs": [],
      "name": "donate",
      "outputs": [],
      "stateMutability": "payable",
      "type": "function"
    },
    {
      "inputs": [],
      "name": "donationCounter",
      "outputs": [
        {
          "internalType": "uint256",
          "name": "",
          "type": "uint256"
        }
      ],
      "stateMutability": "view",
      "type": "function"
    },
    {
      "inputs": [
        {
          "internalType": "uint256",
          "name": "",
          "type": "uint256"
        }
      ],
      "name": "donationHistory",
      "outputs": [
        {
          "internalType": "uint256",
          "name": "id",
          "type": "uint256"
        },
        {
          "internalType": "address",
          "name": "donor",
          "type": "address"
        },
        {
          "internalType": "uint256",
          "name": "amount",
          "type": "uint256"
        }
      ],
      "stateMutability": "view",
      "type": "function"
    },
    {
      "inputs": [
        {
          "internalType": "address",
          "name": "",
          "type": "address"
        }
      ],
      "name": "donations",
      "outputs": [
        {
          "internalType": "uint256",
          "name": "",
          "type": "uint256"
        }
      ],
      "stateMutability": "view",
      "type": "function"
    },
    {
      "inputs": [],
      "name": "getAllDonations",
      "outputs": [
        {
          "components": [
            {
              "internalType": "uint256",
              "name": "id",
              "type": "uint256"
            },
            {
              "internalType": "address",
              "name": "donor",
              "type": "address"
            },
            {
              "internalType": "uint256",
              "name": "amount",
              "type": "uint256"
            }
          ],
          "internalType": "struct Campaign.Donation[]",
          "name": "",
          "type": "tuple[]"
        }
      ],
      "stateMutability": "view",
      "type": "function"
    },
    {
      "inputs": [],
      "name": "getBalance",
      "outputs": [
        {
          "internalType": "uint256",
          "name": "",
          "type": "uint256"
        }
      ],
      "stateMutability": "view",
      "type": "function"
    },
    {
      "inputs": [],
      "name": "owner",
      "outputs": [
        {
          "internalType": "address",
          "name": "",
          "type": "address"
        }
      ],
      "stateMutability": "view",
      "type": "function"
    },
    {
      "inputs": [],
      "name": "withdraw",
      "outputs": [],
      "stateMutability": "nonpayable",
      "type": "function"
    }
  ],
  "bytecode": "0x608060405234801561001057600080fd5b50604051610dcc380380610dcc833981810160405281019061003291906100ba565b336000806101000a81548173ffffffffffffffffffffffffffffffffffffffff021916908373ffffffffffffffffffffffffffffffffffffffff16021790555080600181905550506100e7565b600080fd5b6000819050919050565b61009781610084565b81146100a257600080fd5b50565b6000815190506100b48161008e565b92915050565b6000602082840312156100d0576100cf61007f565b5b60006100de848285016100a5565b91505092915050565b610cd6806100f66000396000f3fe6080604052600436106100865760003560e01c80637bc3a733116100595780637bc3a733146101235780638da5cb5b1461014e5780639feeba6014610179578063cc6cb19a146101b8578063ed88c68e146101f557610086565b806312065fe01461008b57806338a59a07146100b657806338d187dd146100e15780633ccfd60b1461010c575b600080fd5b34801561009757600080fd5b506100a06101ff565b6040516100ad9190610758565b60405180910390f35b3480156100c257600080fd5b506100cb610207565b6040516100d891906108b4565b60405180910390f35b3480156100ed57600080fd5b506100f66102d0565b6040516101039190610758565b60405180910390f35b34801561011857600080fd5b506101216102d6565b005b34801561012f57600080fd5b506101386104eb565b6040516101459190610758565b60405180910390f35b34801561015a57600080fd5b506101636104f1565b60405161017091906108e5565b60405180910390f35b34801561018557600080fd5b506101a0600480360381019061019b9190610931565b610515565b6040516101af9392919061095e565b60405180910390f35b3480156101c457600080fd5b506101df60048036038101906101da91906109c1565b61056f565b6040516101ec9190610758565b60405180910390f35b6101fd610587565b005b600047905090565b60606003805480602002602001604051908101604052809291908181526020016000905b828210156102c75783829060005260206000209060030201604051806060016040529081600082015481526020016001820160009054906101000a900473ffffffffffffffffffffffffffffffffffffffff1673ffffffffffffffffffffffffffffffffffffffff1673ffffffffffffffffffffffffffffffffffffffff1681526020016002820154815250508152602001906001019061022b565b50505050905090565b60025481565b60008054906101000a900473ffffffffffffffffffffffffffffffffffffffff1673ffffffffffffffffffffffffffffffffffffffff163373ffffffffffffffffffffffffffffffffffffffff1614610364576040517f08c379a000000000000000000000000000000000000000000000000000000000815260040161035b90610a4b565b60405180910390fd5b6000479050600081116103ac576040517f08c379a00000000000000000000000000000000000000000000000000000000081526004016103a390610ab7565b60405180910390fd5b60008060009054906101000a900473ffffffffffffffffffffffffffffffffffffffff1673ffffffffffffffffffffffffffffffffffffffff16826040516103f390610b08565b60006040518083038185875af1925050503d8060008114610430576040519150601f19603f3d011682016040523d82523d6000602084013e610435565b606091505b5050905080610479576040517f08c379a000000000000000000000000000000000000000000000000000000000815260040161047090610b69565b60405180910390fd5b60008054906101000a900473ffffffffffffffffffffffffffffffffffffffff1673ffffffffffffffffffffffffffffffffffffffff167f884edad9ce6fa2440d8a54cc123490eb96d2768479d49ff9c7366125a9424364836040516104df9190610758565b60405180910390a25050565b60015481565b60008054906101000a900473ffffffffffffffffffffffffffffffffffffffff1681565b6003818154811061052557600080fd5b90600052602060002090600302016000915090508060000154908060010160009054906101000a900473ffffffffffffffffffffffffffffffffffffffff16908060020154905083565b60046020528060005260406000206000915090505481565b600034116105ca576040517f08c379a00000000000000000000000000000000000000000000000000000000081526004016105c190610bd5565b60405180910390fd5b34600460003373ffffffffffffffffffffffffffffffffffffffff1673ffffffffffffffffffffffffffffffffffffffff16815260200190815260200160002060008282546106199190610c24565b92505081905550600360405180606001604052806002600081548092919061064090610c58565b9190505581526020013373ffffffffffffffffffffffffffffffffffffffff1681526020013481525090806001815401808255809150506001900390600052602060002090600302016000909190919091506000820151816000015560208201518160010160006101000a81548173ffffffffffffffffffffffffffffffffffffffff021916908373ffffffffffffffffffffffffffffffffffffffff1602179055506040820151816002015550503373ffffffffffffffffffffffffffffffffffffffff167f264f630d9efa0d07053a31163641d9fcc0adafc9d9e76f1c37c2ce3a558d2c52346040516107359190610758565b60405180910390a2565b6000819050919050565b6107528161073f565b82525050565b600060208201905061076d6000830184610749565b92915050565b600081519050919050565b600082825260208201905092915050565b6000819050602082019050919050565b6107a88161073f565b82525050565b600073ffffffffffffffffffffffffffffffffffffffff82169050919050565b60006107d9826107ae565b9050919050565b6107e9816107ce565b82525050565b606082016000820151610805600085018261079f565b50602082015161081860208501826107e0565b50604082015161082b604085018261079f565b50505050565b600061083d83836107ef565b60608301905092915050565b6000602082019050919050565b600061086182610773565b61086b818561077e565b93506108768361078f565b8060005b838110156108a757815161088e8882610831565b975061089983610849565b92505060018101905061087a565b5085935050505092915050565b600060208201905081810360008301526108ce8184610856565b905092915050565b6108df816107ce565b82525050565b60006020820190506108fa60008301846108d6565b92915050565b600080fd5b61090e8161073f565b811461091957600080fd5b50565b60008135905061092b81610905565b92915050565b60006020828403121561094757610946610900565b5b60006109558482850161091c565b91505092915050565b60006060820190506109736000830186610749565b61098060208301856108d6565b61098d6040830184610749565b949350505050565b61099e816107ce565b81146109a957600080fd5b50565b6000813590506109bb81610995565b92915050565b6000602082840312156109d7576109d6610900565b5b60006109e5848285016109ac565b91505092915050565b600082825260208201905092915050565b7f4f6e6c79206f776e657200000000000000000000000000000000000000000000600082015250565b6000610a35600a836109ee565b9150610a40826109ff565b602082019050919050565b60006020820190508181036000830152610a6481610a28565b9050919050565b7f4e6f7468696e6720746f20776974686472617700000000000000000000000000600082015250565b6000610aa16013836109ee565b9150610aac82610a6b565b602082019050919050565b60006020820190508181036000830152610ad081610a94565b9050919050565b600081905092915050565b50565b6000610af2600083610ad7565b9150610afd82610ae2565b600082019050919050565b6000610b1382610ae5565b9150819050919050565b7f5769746864726177206661696c65640000000000000000000000000000000000600082015250565b6000610b53600f836109ee565b9150610b5e82610b1d565b602082019050919050565b60006020820190508181036000830152610b8281610b46565b9050919050565b7f416d6f756e74206d757374206265203e20300000000000000000000000000000600082015250565b6000610bbf6012836109ee565b9150610bca82610b89565b602082019050919050565b60006020820190508181036000830152610bee81610bb2565b9050919050565b7f4e487b7100000000000000000000000000000000000000000000000000000000600052601160045260246000fd5b6000610c2f8261073f565b9150610c3a8361073f565b9250828201905080821115610c5257610c51610bf5565b5b92915050565b6000610c638261073f565b91507fffffffffffffffffffffffffffffffffffffffffffffffffffffffffffffffff8203610c9557610c94610bf5565b5b60018201905091905056fea2646970667358221220f9dbc5b44d2ce426d31fa3ff116106f5322c54163412f3da678acd237a2a850e64736f6c63430008140033",
  "linkReferences": {},
  "deployedLinkReferences": {}
}